{
  "contractName": "MemorySaver",
  "abi": [
    {
      "constant": false,
      "inputs": [
        {
          "name": "_title",
          "type": "string"
        },
        {
          "name": "_content",
          "type": "string"
        },
        {
          "name": "_hash",
          "type": "string"
        }
      ],
      "name": "save",
      "outputs": [],
      "payable": false,
      "stateMutability": "nonpayable",
      "type": "function",
      "signature": "0x9b6ec14c"
    },
    {
      "constant": true,
      "inputs": [
        {
          "name": "_id",
          "type": "uint256"
        }
      ],
      "name": "getMemory",
      "outputs": [
        {
          "name": "",
          "type": "string"
        },
        {
          "name": "",
          "type": "string"
        },
        {
          "name": "",
          "type": "string"
        },
        {
          "name": "",
          "type": "uint256"
        }
      ],
      "payable": false,
      "stateMutability": "view",
      "type": "function",
      "signature": "0x2257406e"
    },
    {
      "constant": true,
      "inputs": [],
      "name": "getMemoryCount",
      "outputs": [
        {
          "name": "",
          "type": "uint256"
        }
      ],
      "payable": false,
      "stateMutability": "view",
      "type": "function",
      "signature": "0xb62ce657"
    }
  ],
  "bytecode": "0x608060405234801561001057600080fd5b50610960806100206000396000f3fe608060405260043610610057576000357c0100000000000000000000000000000000000000000000000000000000900463ffffffff1680632257406e1461005c5780639b6ec14c146101ef578063b62ce657146103e5575b600080fd5b34801561006857600080fd5b506100956004803603602081101561007f57600080fd5b8101908080359060200190929190505050610410565b60405180806020018060200180602001858152602001848103845288818151815260200191508051906020019080838360005b838110156100e35780820151818401526020810190506100c8565b50505050905090810190601f1680156101105780820380516001836020036101000a031916815260200191505b50848103835287818151815260200191508051906020019080838360005b8381101561014957808201518184015260208101905061012e565b50505050905090810190601f1680156101765780820380516001836020036101000a031916815260200191505b50848103825286818151815260200191508051906020019080838360005b838110156101af578082015181840152602081019050610194565b50505050905090810190601f1680156101dc5780820380516001836020036101000a031916815260200191505b5097505050505050505060405180910390f35b3480156101fb57600080fd5b506103e36004803603606081101561021257600080fd5b810190808035906020019064010000000081111561022f57600080fd5b82018360208201111561024157600080fd5b8035906020019184600183028401116401000000008311171561026357600080fd5b91908080601f016020809104026020016040519081016040528093929190818152602001838380828437600081840152601f19601f820116905080830192505050505050509192919290803590602001906401000000008111156102c657600080fd5b8201836020820111156102d857600080fd5b803590602001918460018302840111640100000000831117156102fa57600080fd5b91908080601f016020809104026020016040519081016040528093929190818152602001838380828437600081840152601f19601f8201169050808301925050505050505091929192908035906020019064010000000081111561035d57600080fd5b82018360208201111561036f57600080fd5b8035906020019184600183028401116401000000008311171561039157600080fd5b91908080601f016020809104026020016040519081016040528093929190818152602001838380828437600081840152601f19601f82011690508083019250505050505050919291929050505061069c565b005b3480156103f157600080fd5b506103fa61081d565b6040518082815260200191505060405180910390f35b6060806060600061041f610866565b6000803373ffffffffffffffffffffffffffffffffffffffff1673ffffffffffffffffffffffffffffffffffffffff168152602001908152602001600020600101600087815260200190815260200160002060806040519081016040529081600082018054600181600116156101000203166002900480601f0160208091040260200160405190810160405280929190818152602001828054600181600116156101000203166002900480156105165780601f106104eb57610100808354040283529160200191610516565b820191906000526020600020905b8154815290600101906020018083116104f957829003601f168201915b50505050508152602001600182018054600181600116156101000203166002900480601f0160208091040260200160405190810160405280929190818152602001828054600181600116156101000203166002900480156105b85780601f1061058d576101008083540402835291602001916105b8565b820191906000526020600020905b81548152906001019060200180831161059b57829003601f168201915b50505050508152602001600282018054600181600116156101000203166002900480601f01602080910402602001604051908101604052809291908181526020018280546001816001161561010002031660029004801561065a5780601f1061062f5761010080835404028352916020019161065a565b820191906000526020600020905b81548152906001019060200180831161063d57829003601f168201915b50505050508152602001600382015481525050905080600001518160200151826040015183606001518393508292508191509450945094509450509193509193565b6106a4610866565b60806040519081016040528085815260200184815260200183815260200142815250905060008060003373ffffffffffffffffffffffffffffffffffffffff1673ffffffffffffffffffffffffffffffffffffffff168152602001908152602001600020600001549050816000803373ffffffffffffffffffffffffffffffffffffffff1673ffffffffffffffffffffffffffffffffffffffff1681526020019081526020016000206001016000838152602001908152602001600020600082015181600001908051906020019061077d92919061088f565b50602082015181600101908051906020019061079a92919061088f565b5060408201518160020190805190602001906107b792919061088f565b50606082015181600301559050506000803373ffffffffffffffffffffffffffffffffffffffff1673ffffffffffffffffffffffffffffffffffffffff168152602001908152602001600020600001600081548092919060010191905055505050505050565b60008060003373ffffffffffffffffffffffffffffffffffffffff1673ffffffffffffffffffffffffffffffffffffffff16815260200190815260200160002060000154905090565b608060405190810160405280606081526020016060815260200160608152602001600081525090565b828054600181600116156101000203166002900490600052602060002090601f016020900481019282601f106108d057805160ff19168380011785556108fe565b828001600101855582156108fe579182015b828111156108fd5782518255916020019190600101906108e2565b5b50905061090b919061090f565b5090565b61093191905b8082111561092d576000816000905550600101610915565b5090565b9056fea165627a7a7230582089e31c61d62085d47e7e6c5c9d723749c09b55901773af42d8df28ece27f64800029",
  "source": "pragma solidity ^0.5.0;\n\ncontract MemorySaver {\n\tstruct Memory {\n\t\tstring title;\n\t\tstring content;\n\t\tstring hash;\n\t\tuint timestamp;\n\t}\n\tstruct User {\n\t    uint count;\n\t    mapping(uint => Memory) memories;\n\t}\n\tmapping(address => User) users;\n\n\tfunction save(string memory _title, string memory _content, string memory _hash) public {\n\t\tMemory memory _mem = Memory(_title, _content, _hash, now);\n\t    uint _counter = users[msg.sender].count;\n\t    users[msg.sender].memories[_counter] = _mem;\n\t    users[msg.sender].count++;\n\t}\n\n\tfunction getMemory(uint _id) public view returns (string memory, string memory, string memory, uint) {\n\t\tMemory memory _mem = users[msg.sender].memories[_id];\n\t    return (_mem.title, _mem.content, _mem.hash, _mem.timestamp);\n\t}\n\t\n\tfunction getMemoryCount() public view returns(uint) {\n\t    return users[msg.sender].count;\n\t}\n}\n",
  "sourcePath": "D:/MyProjects/image-uploader/contracts/MemorySaver.sol",
  "compiler": {
    "name": "solc",
    "version": "0.5.0+commit.1d4f565a.Emscripten.clang"
  },
  "schemaVersion": "3.0.1",
  "updatedAt": "2019-08-21T16:35:45.406Z",
  "devdoc": {
    "methods": {}
  },
  "userdoc": {
    "methods": {}
  }
}